{
  "_format": "hh-sol-artifact-1",
  "contractName": "NFTMarketplace",
  "sourceName": "contracts/NFTMarketplace.sol",
  "abi": [
    {
      "inputs": [],
      "stateMutability": "nonpayable",
      "type": "constructor"
    },
    {
      "anonymous": false,
      "inputs": [
        {
          "indexed": true,
          "internalType": "address",
          "name": "owner",
          "type": "address"
        },
        {
          "indexed": true,
          "internalType": "address",
          "name": "approved",
          "type": "address"
        },
        {
          "indexed": true,
          "internalType": "uint256",
          "name": "tokenId",
          "type": "uint256"
        }
      ],
      "name": "Approval",
      "type": "event"
    },
    {
      "anonymous": false,
      "inputs": [
        {
          "indexed": true,
          "internalType": "address",
          "name": "owner",
          "type": "address"
        },
        {
          "indexed": true,
          "internalType": "address",
          "name": "operator",
          "type": "address"
        },
        {
          "indexed": false,
          "internalType": "bool",
          "name": "approved",
          "type": "bool"
        }
      ],
      "name": "ApprovalForAll",
      "type": "event"
    },
    {
      "anonymous": false,
      "inputs": [
        {
          "indexed": false,
          "internalType": "uint256",
          "name": "_fromTokenId",
          "type": "uint256"
        },
        {
          "indexed": false,
          "internalType": "uint256",
          "name": "_toTokenId",
          "type": "uint256"
        }
      ],
      "name": "BatchMetadataUpdate",
      "type": "event"
    },
    {
      "anonymous": false,
      "inputs": [
        {
          "indexed": false,
          "internalType": "uint256",
          "name": "_tokenId",
          "type": "uint256"
        }
      ],
      "name": "MetadataUpdate",
      "type": "event"
    },
    {
      "anonymous": false,
      "inputs": [
        {
          "indexed": true,
          "internalType": "address",
          "name": "from",
          "type": "address"
        },
        {
          "indexed": true,
          "internalType": "address",
          "name": "to",
          "type": "address"
        },
        {
          "indexed": true,
          "internalType": "uint256",
          "name": "tokenId",
          "type": "uint256"
        }
      ],
      "name": "Transfer",
      "type": "event"
    },
    {
      "inputs": [
        {
          "internalType": "address",
          "name": "to",
          "type": "address"
        },
        {
          "internalType": "uint256",
          "name": "tokenId",
          "type": "uint256"
        }
      ],
      "name": "approve",
      "outputs": [],
      "stateMutability": "nonpayable",
      "type": "function"
    },
    {
      "inputs": [
        {
          "internalType": "address",
          "name": "owner",
          "type": "address"
        }
      ],
      "name": "balanceOf",
      "outputs": [
        {
          "internalType": "uint256",
          "name": "",
          "type": "uint256"
        }
      ],
      "stateMutability": "view",
      "type": "function"
    },
    {
      "inputs": [
        {
          "internalType": "string",
          "name": "tokenURI",
          "type": "string"
        },
        {
          "internalType": "uint256",
          "name": "price",
          "type": "uint256"
        }
      ],
      "name": "createToken",
      "outputs": [
        {
          "internalType": "uint256",
          "name": "",
          "type": "uint256"
        }
      ],
      "stateMutability": "payable",
      "type": "function"
    },
    {
      "inputs": [
        {
          "internalType": "uint256",
          "name": "tokenId",
          "type": "uint256"
        }
      ],
      "name": "executeSale",
      "outputs": [],
      "stateMutability": "payable",
      "type": "function"
    },
    {
      "inputs": [],
      "name": "getAllNFTs",
      "outputs": [
        {
          "components": [
            {
              "internalType": "uint256",
              "name": "tokenId",
              "type": "uint256"
            },
            {
              "internalType": "address payable",
              "name": "owner",
              "type": "address"
            },
            {
              "internalType": "address payable",
              "name": "seller",
              "type": "address"
            },
            {
              "internalType": "uint256",
              "name": "price",
              "type": "uint256"
            },
            {
              "internalType": "bool",
              "name": "currentlyListed",
              "type": "bool"
            }
          ],
          "internalType": "struct NFTMarketplace.ListedToken[]",
          "name": "",
          "type": "tuple[]"
        }
      ],
      "stateMutability": "view",
      "type": "function"
    },
    {
      "inputs": [
        {
          "internalType": "uint256",
          "name": "tokenId",
          "type": "uint256"
        }
      ],
      "name": "getApproved",
      "outputs": [
        {
          "internalType": "address",
          "name": "",
          "type": "address"
        }
      ],
      "stateMutability": "view",
      "type": "function"
    },
    {
      "inputs": [],
      "name": "getCurrentToken",
      "outputs": [
        {
          "internalType": "uint256",
          "name": "",
          "type": "uint256"
        }
      ],
      "stateMutability": "view",
      "type": "function"
    },
    {
      "inputs": [],
      "name": "getLastestIdToListedToken",
      "outputs": [
        {
          "components": [
            {
              "internalType": "uint256",
              "name": "tokenId",
              "type": "uint256"
            },
            {
              "internalType": "address payable",
              "name": "owner",
              "type": "address"
            },
            {
              "internalType": "address payable",
              "name": "seller",
              "type": "address"
            },
            {
              "internalType": "uint256",
              "name": "price",
              "type": "uint256"
            },
            {
              "internalType": "bool",
              "name": "currentlyListed",
              "type": "bool"
            }
          ],
          "internalType": "struct NFTMarketplace.ListedToken",
          "name": "",
          "type": "tuple"
        }
      ],
      "stateMutability": "view",
      "type": "function"
    },
    {
      "inputs": [],
      "name": "getListPrice",
      "outputs": [
        {
          "internalType": "uint256",
          "name": "",
          "type": "uint256"
        }
      ],
      "stateMutability": "view",
      "type": "function"
    },
    {
      "inputs": [
        {
          "internalType": "uint256",
          "name": "tokenId",
          "type": "uint256"
        }
      ],
      "name": "getListedForTokenId",
      "outputs": [
        {
          "components": [
            {
              "internalType": "uint256",
              "name": "tokenId",
              "type": "uint256"
            },
            {
              "internalType": "address payable",
              "name": "owner",
              "type": "address"
            },
            {
              "internalType": "address payable",
              "name": "seller",
              "type": "address"
            },
            {
              "internalType": "uint256",
              "name": "price",
              "type": "uint256"
            },
            {
              "internalType": "bool",
              "name": "currentlyListed",
              "type": "bool"
            }
          ],
          "internalType": "struct NFTMarketplace.ListedToken",
          "name": "",
          "type": "tuple"
        }
      ],
      "stateMutability": "view",
      "type": "function"
    },
    {
      "inputs": [],
      "name": "getMyNFTs",
      "outputs": [
        {
          "components": [
            {
              "internalType": "uint256",
              "name": "tokenId",
              "type": "uint256"
            },
            {
              "internalType": "address payable",
              "name": "owner",
              "type": "address"
            },
            {
              "internalType": "address payable",
              "name": "seller",
              "type": "address"
            },
            {
              "internalType": "uint256",
              "name": "price",
              "type": "uint256"
            },
            {
              "internalType": "bool",
              "name": "currentlyListed",
              "type": "bool"
            }
          ],
          "internalType": "struct NFTMarketplace.ListedToken[]",
          "name": "",
          "type": "tuple[]"
        }
      ],
      "stateMutability": "view",
      "type": "function"
    },
    {
      "inputs": [
        {
          "internalType": "address",
          "name": "owner",
          "type": "address"
        },
        {
          "internalType": "address",
          "name": "operator",
          "type": "address"
        }
      ],
      "name": "isApprovedForAll",
      "outputs": [
        {
          "internalType": "bool",
          "name": "",
          "type": "bool"
        }
      ],
      "stateMutability": "view",
      "type": "function"
    },
    {
      "inputs": [],
      "name": "name",
      "outputs": [
        {
          "internalType": "string",
          "name": "",
          "type": "string"
        }
      ],
      "stateMutability": "view",
      "type": "function"
    },
    {
      "inputs": [
        {
          "internalType": "uint256",
          "name": "tokenId",
          "type": "uint256"
        }
      ],
      "name": "ownerOf",
      "outputs": [
        {
          "internalType": "address",
          "name": "",
          "type": "address"
        }
      ],
      "stateMutability": "view",
      "type": "function"
    },
    {
      "inputs": [
        {
          "internalType": "address",
          "name": "from",
          "type": "address"
        },
        {
          "internalType": "address",
          "name": "to",
          "type": "address"
        },
        {
          "internalType": "uint256",
          "name": "tokenId",
          "type": "uint256"
        }
      ],
      "name": "safeTransferFrom",
      "outputs": [],
      "stateMutability": "nonpayable",
      "type": "function"
    },
    {
      "inputs": [
        {
          "internalType": "address",
          "name": "from",
          "type": "address"
        },
        {
          "internalType": "address",
          "name": "to",
          "type": "address"
        },
        {
          "internalType": "uint256",
          "name": "tokenId",
          "type": "uint256"
        },
        {
          "internalType": "bytes",
          "name": "data",
          "type": "bytes"
        }
      ],
      "name": "safeTransferFrom",
      "outputs": [],
      "stateMutability": "nonpayable",
      "type": "function"
    },
    {
      "inputs": [
        {
          "internalType": "address",
          "name": "operator",
          "type": "address"
        },
        {
          "internalType": "bool",
          "name": "approved",
          "type": "bool"
        }
      ],
      "name": "setApprovalForAll",
      "outputs": [],
      "stateMutability": "nonpayable",
      "type": "function"
    },
    {
      "inputs": [
        {
          "internalType": "bytes4",
          "name": "interfaceId",
          "type": "bytes4"
        }
      ],
      "name": "supportsInterface",
      "outputs": [
        {
          "internalType": "bool",
          "name": "",
          "type": "bool"
        }
      ],
      "stateMutability": "view",
      "type": "function"
    },
    {
      "inputs": [],
      "name": "symbol",
      "outputs": [
        {
          "internalType": "string",
          "name": "",
          "type": "string"
        }
      ],
      "stateMutability": "view",
      "type": "function"
    },
    {
      "inputs": [
        {
          "internalType": "uint256",
          "name": "tokenId",
          "type": "uint256"
        }
      ],
      "name": "tokenURI",
      "outputs": [
        {
          "internalType": "string",
          "name": "",
          "type": "string"
        }
      ],
      "stateMutability": "view",
      "type": "function"
    },
    {
      "inputs": [
        {
          "internalType": "address",
          "name": "from",
          "type": "address"
        },
        {
          "internalType": "address",
          "name": "to",
          "type": "address"
        },
        {
          "internalType": "uint256",
          "name": "tokenId",
          "type": "uint256"
        }
      ],
      "name": "transferFrom",
      "outputs": [],
      "stateMutability": "nonpayable",
      "type": "function"
    },
    {
      "inputs": [
        {
          "internalType": "uint256",
          "name": "_listPrice",
          "type": "uint256"
        }
      ],
      "name": "updateListPrice",
      "outputs": [],
      "stateMutability": "payable",
      "type": "function"
    }
  ],
  "bytecode": "0x6080604052655af3107a4000600a553480156200001b57600080fd5b50604080518082018252600e81526d4e46544d61726b6574706c61636560901b6020808301918252835180850190945260048452634e46544d60e01b9084015281519192916200006e916000916200009f565b508051620000849060019060208401906200009f565b5050600780546001600160a01b031916331790555062000182565b828054620000ad9062000145565b90600052602060002090601f016020900481019282620000d157600085556200011c565b82601f10620000ec57805160ff19168380011785556200011c565b828001600101855582156200011c579182015b828111156200011c578251825591602001919060010190620000ff565b506200012a9291506200012e565b5090565b5b808211156200012a57600081556001016200012f565b600181811c908216806200015a57607f821691505b602082108114156200017c57634e487b7160e01b600052602260045260246000fd5b50919050565b6120a480620001926000396000f3fe6080604052600436106101355760003560e01c806395d89b41116100ab578063b88d4fde1161006f578063b88d4fde14610349578063c322579c14610369578063c87b56dd1461037c578063e0391b091461039c578063e985e9c5146103b1578063ef2d1746146103fa57600080fd5b806395d89b41146102bf57806398c3df16146102d45780639b1225c4146103015780639b24684814610314578063a22cb4651461032957600080fd5b806342842e0e116100fd57806342842e0e1461020b578063629cb2e41461022b5780636352211e1461024d57806368f1945f1461026d57806370a082311461028c57806372b3b620146102ac57600080fd5b806301ffc9a71461013a57806306fdde031461016f578063081812fc14610191578063095ea7b3146101c957806323b872dd146101eb575b600080fd5b34801561014657600080fd5b5061015a610155366004611cc1565b61040f565b60405190151581526020015b60405180910390f35b34801561017b57600080fd5b5061018461043a565b6040516101669190611e8d565b34801561019d57600080fd5b506101b16101ac366004611d4f565b6104cc565b6040516001600160a01b039091168152602001610166565b3480156101d557600080fd5b506101e96101e4366004611c98565b6104f3565b005b3480156101f757600080fd5b506101e9610206366004611baa565b61060e565b34801561021757600080fd5b506101e9610226366004611baa565b61063f565b34801561023757600080fd5b5061024061065a565b6040516101669190611e3f565b34801561025957600080fd5b506101b1610268366004611d4f565b61089f565b34801561027957600080fd5b50600a545b604051908152602001610166565b34801561029857600080fd5b5061027e6102a7366004611b5e565b6108ff565b61027e6102ba366004611cf9565b610985565b3480156102cb57600080fd5b50610184610a68565b3480156102e057600080fd5b506102f46102ef366004611d4f565b610a77565b6040516101669190611f84565b6101e961030f366004611d4f565b610ae1565b34801561032057600080fd5b506102f4610c2c565b34801561033557600080fd5b506101e9610344366004611c5e565b610ca3565b34801561035557600080fd5b506101e9610364366004611be5565b610cb2565b6101e9610377366004611d4f565b610ce4565b34801561038857600080fd5b50610184610397366004611d4f565b610d4f565b3480156103a857600080fd5b50610240610e60565b3480156103bd57600080fd5b5061015a6103cc366004611b78565b6001600160a01b03918216600090815260056020908152604080832093909416825291909152205460ff1690565b34801561040657600080fd5b5061027e610fa7565b60006001600160e01b03198216632483248360e11b1480610434575061043482610fb7565b92915050565b60606000805461044990611fd6565b80601f016020809104026020016040519081016040528092919081815260200182805461047590611fd6565b80156104c25780601f10610497576101008083540402835291602001916104c2565b820191906000526020600020905b8154815290600101906020018083116104a557829003601f168201915b5050505050905090565b60006104d782611007565b506000908152600460205260409020546001600160a01b031690565b60006104fe8261089f565b9050806001600160a01b0316836001600160a01b031614156105715760405162461bcd60e51b815260206004820152602160248201527f4552433732313a20617070726f76616c20746f2063757272656e74206f776e656044820152603960f91b60648201526084015b60405180910390fd5b336001600160a01b038216148061058d575061058d81336103cc565b6105ff5760405162461bcd60e51b815260206004820152603d60248201527f4552433732313a20617070726f76652063616c6c6572206973206e6f7420746f60448201527f6b656e206f776e6572206f7220617070726f76656420666f7220616c6c0000006064820152608401610568565b6106098383611069565b505050565b61061833826110d7565b6106345760405162461bcd60e51b815260040161056890611ea0565b610609838383611155565b61060983838360405180602001604052806000815250610cb2565b6060600061066760085490565b905060008060005b838110156106ff5733600b6000610687846001611f92565b81526020810191909152604001600020600101546001600160a01b031614806106da575033600b60006106bb846001611f92565b81526020810191909152604001600020600201546001600160a01b0316145b156106ed576106ea600184611f92565b92505b806106f781612011565b91505061066f565b5060008267ffffffffffffffff81111561072957634e487b7160e01b600052604160045260246000fd5b60405190808252806020026020018201604052801561076257816020015b61074f611a05565b8152602001906001900390816107475790505b50905060005b848110156108965733600b6000610780846001611f92565b81526020810191909152604001600020600101546001600160a01b031614806107d3575033600b60006107b4846001611f92565b81526020810191909152604001600020600201546001600160a01b0316145b156108845760006107e5826001611f92565b6000818152600b6020908152604091829020825160a0810184528154815260018201546001600160a01b039081169382019390935260028201549092169282019290925260038201546060820152600482015460ff16151560808201528551929350909185908790811061086957634e487b7160e01b600052603260045260246000fd5b602090810291909101015261087f600186611f92565b945050505b8061088e81612011565b915050610768565b50949350505050565b6000818152600260205260408120546001600160a01b0316806104345760405162461bcd60e51b8152602060048201526018602482015277115490cdcc8c4e881a5b9d985b1a59081d1bdad95b88125160421b6044820152606401610568565b60006001600160a01b0382166109695760405162461bcd60e51b815260206004820152602960248201527f4552433732313a2061646472657373207a65726f206973206e6f7420612076616044820152683634b21037bbb732b960b91b6064820152608401610568565b506001600160a01b031660009081526003602052604090205490565b6000600a5434146109d85760405162461bcd60e51b815260206004820152601960248201527f53656e6420656e6f75676820657468657220746f206c697374000000000000006044820152606401610568565b60008211610a285760405162461bcd60e51b815260206004820152601f60248201527f5468652070726963652068617320746f206265206d6f7265207468616e2030006044820152606401610568565b610a36600880546001019055565b6000610a4160085490565b9050610a4d33826112b9565b610a5781856112d3565b610a6181846113a5565b9392505050565b60606001805461044990611fd6565b610a7f611a05565b506000908152600b6020908152604091829020825160a0810184528154815260018201546001600160a01b03908116938201939093526002820154909216928201929092526003820154606082015260049091015460ff161515608082015290565b6000818152600b6020526040902060030154348114610b555760405162461bcd60e51b815260206004820152602a60248201527f506c65617365207375626d6974207468652061736b696e6720707269636520666044820152691bdc881d1a194813919560b21b6064820152608401610568565b6000828152600b602052604090206002810180546004909201805460ff191660011790556001600160a01b03198216331790556001600160a01b0316610b9f600980546001019055565b610baa303385611155565b610bb430846104f3565b600754600a546040516001600160a01b039092169181156108fc0291906000818181858888f19350505050158015610bf0573d6000803e3d6000fd5b506040516001600160a01b038216903480156108fc02916000818181858888f19350505050158015610c26573d6000803e3d6000fd5b50505050565b610c34611a05565b6000610c3f60085490565b6000908152600b6020908152604091829020825160a0810184528154815260018201546001600160a01b03908116938201939093526002820154909216928201929092526003820154606082015260049091015460ff161515608082015292915050565b610cae338383611442565b5050565b610cbc33836110d7565b610cd85760405162461bcd60e51b815260040161056890611ea0565b610c2684848484611511565b6007546001600160a01b03163314610d4a5760405162461bcd60e51b815260206004820152602360248201527f4f6e6c79206f776e65722063616e20757064617465206c697374696e6720707260448201526269636560e81b6064820152608401610568565b600a55565b6060610d5a82611007565b60008281526006602052604081208054610d7390611fd6565b80601f0160208091040260200160405190810160405280929190818152602001828054610d9f90611fd6565b8015610dec5780601f10610dc157610100808354040283529160200191610dec565b820191906000526020600020905b815481529060010190602001808311610dcf57829003601f168201915b505050505090506000610e0a60408051602081019091526000815290565b9050805160001415610e1d575092915050565b815115610e4f578082604051602001610e37929190611dd3565b60405160208183030381529060405292505050919050565b610e5884611544565b949350505050565b60606000610e6d60085490565b905060008167ffffffffffffffff811115610e9857634e487b7160e01b600052604160045260246000fd5b604051908082528060200260200182016040528015610ed157816020015b610ebe611a05565b815260200190600190039081610eb65790505b5090506000805b83811015610f9e576000610eed826001611f92565b6000818152600b6020908152604091829020825160a0810184528154815260018201546001600160a01b039081169382019390935260028201549092169282019290925260038201546060820152600482015460ff161515608082015286519293509091869086908110610f7157634e487b7160e01b600052603260045260246000fd5b6020908102919091010152610f87600185611f92565b935050508080610f9690612011565b915050610ed8565b50909392505050565b6000610fb260085490565b905090565b60006001600160e01b031982166380ac58cd60e01b1480610fe857506001600160e01b03198216635b5e139f60e01b145b8061043457506301ffc9a760e01b6001600160e01b0319831614610434565b6000818152600260205260409020546001600160a01b03166110665760405162461bcd60e51b8152602060048201526018602482015277115490cdcc8c4e881a5b9d985b1a59081d1bdad95b88125160421b6044820152606401610568565b50565b600081815260046020526040902080546001600160a01b0319166001600160a01b038416908117909155819061109e8261089f565b6001600160a01b03167f8c5be1e5ebec7d5bd14f71427d1e84f3dd0314c0f7b2291e5b200ac8c7c3b92560405160405180910390a45050565b6000806110e38361089f565b9050806001600160a01b0316846001600160a01b0316148061112a57506001600160a01b0380821660009081526005602090815260408083209388168352929052205460ff165b80610e585750836001600160a01b0316611143846104cc565b6001600160a01b031614949350505050565b826001600160a01b03166111688261089f565b6001600160a01b03161461118e5760405162461bcd60e51b815260040161056890611f3f565b6001600160a01b0382166111f05760405162461bcd60e51b8152602060048201526024808201527f4552433732313a207472616e7366657220746f20746865207a65726f206164646044820152637265737360e01b6064820152608401610568565b826001600160a01b03166112038261089f565b6001600160a01b0316146112295760405162461bcd60e51b815260040161056890611f3f565b600081815260046020908152604080832080546001600160a01b03199081169091556001600160a01b0387811680865260038552838620805460001901905590871680865283862080546001019055868652600290945282852080549092168417909155905184937fddf252ad1be2c89b69c2b068fc378daa952ba7f163c4a11628f55a4df523b3ef91a4505050565b610cae8282604051806020016040528060008152506115b7565b6000828152600260205260409020546001600160a01b031661134e5760405162461bcd60e51b815260206004820152602e60248201527f45524337323155524953746f726167653a2055524920736574206f66206e6f6e60448201526d32bc34b9ba32b73a103a37b5b2b760911b6064820152608401610568565b6000828152600660209081526040909120825161136d92840190611a33565b506040518281527ff8e1a15aba9398e019f0b49df1a4fde98ee17ae345cb5f6b5e2c27f5033e8ce79060200160405180910390a15050565b6040805160a081018252838152306020808301828152338486018181526060860188815260016080880181815260008c8152600b9097529890952096518755925193860180546001600160a01b039586166001600160a01b03199182161790915590516002870180549190951691161790925551600384015592516004909201805492151560ff1990931692909217909155610cae919084611155565b816001600160a01b0316836001600160a01b031614156114a45760405162461bcd60e51b815260206004820152601960248201527f4552433732313a20617070726f766520746f2063616c6c6572000000000000006044820152606401610568565b6001600160a01b03838116600081815260056020908152604080832094871680845294825291829020805460ff191686151590811790915591519182527f17307eab39ab6107e8899845ad3d59bd9653f200f220920489ca2b5937696c31910160405180910390a3505050565b61151c848484611155565b611528848484846115ea565b610c265760405162461bcd60e51b815260040161056890611eed565b606061154f82611007565b600061156660408051602081019091526000815290565b905060008151116115865760405180602001604052806000815250610a61565b80611590846116f7565b6040516020016115a1929190611dd3565b6040516020818303038152906040529392505050565b6115c183836117a2565b6115ce60008484846115ea565b6106095760405162461bcd60e51b815260040161056890611eed565b60006001600160a01b0384163b156116ec57604051630a85bd0160e11b81526001600160a01b0385169063150b7a029061162e903390899088908890600401611e02565b602060405180830381600087803b15801561164857600080fd5b505af1925050508015611678575060408051601f3d908101601f1916820190925261167591810190611cdd565b60015b6116d2573d8080156116a6576040519150601f19603f3d011682016040523d82523d6000602084013e6116ab565b606091505b5080516116ca5760405162461bcd60e51b815260040161056890611eed565b805181602001fd5b6001600160e01b031916630a85bd0160e11b149050610e58565b506001949350505050565b606060006117048361192d565b600101905060008167ffffffffffffffff81111561173257634e487b7160e01b600052604160045260246000fd5b6040519080825280601f01601f19166020018201604052801561175c576020820181803683370190505b5090508181016020015b600019016f181899199a1a9b1b9c1cb0b131b232b360811b600a86061a8153600a85049450846117955761179a565b611766565b509392505050565b6001600160a01b0382166117f85760405162461bcd60e51b815260206004820181905260248201527f4552433732313a206d696e7420746f20746865207a65726f20616464726573736044820152606401610568565b6000818152600260205260409020546001600160a01b03161561185d5760405162461bcd60e51b815260206004820152601c60248201527f4552433732313a20746f6b656e20616c7265616479206d696e746564000000006044820152606401610568565b6000818152600260205260409020546001600160a01b0316156118c25760405162461bcd60e51b815260206004820152601c60248201527f4552433732313a20746f6b656e20616c7265616479206d696e746564000000006044820152606401610568565b6001600160a01b038216600081815260036020908152604080832080546001019055848352600290915280822080546001600160a01b0319168417905551839291907fddf252ad1be2c89b69c2b068fc378daa952ba7f163c4a11628f55a4df523b3ef908290a45050565b60008072184f03e93ff9f4daa797ed6e38ed64bf6a1f0160401b831061196c5772184f03e93ff9f4daa797ed6e38ed64bf6a1f0160401b830492506040015b6d04ee2d6d415b85acef81000000008310611998576d04ee2d6d415b85acef8100000000830492506020015b662386f26fc1000083106119b657662386f26fc10000830492506010015b6305f5e10083106119ce576305f5e100830492506008015b61271083106119e257612710830492506004015b606483106119f4576064830492506002015b600a83106104345760010192915050565b6040805160a08101825260008082526020820181905291810182905260608101829052608081019190915290565b828054611a3f90611fd6565b90600052602060002090601f016020900481019282611a615760008555611aa7565b82601f10611a7a57805160ff1916838001178555611aa7565b82800160010185558215611aa7579182015b82811115611aa7578251825591602001919060010190611a8c565b50611ab3929150611ab7565b5090565b5b80821115611ab35760008155600101611ab8565b600067ffffffffffffffff80841115611ae757611ae7612042565b604051601f8501601f19908116603f01168101908282118183101715611b0f57611b0f612042565b81604052809350858152868686011115611b2857600080fd5b858560208301376000602087830101525050509392505050565b80356001600160a01b0381168114611b5957600080fd5b919050565b600060208284031215611b6f578081fd5b610a6182611b42565b60008060408385031215611b8a578081fd5b611b9383611b42565b9150611ba160208401611b42565b90509250929050565b600080600060608486031215611bbe578081fd5b611bc784611b42565b9250611bd560208501611b42565b9150604084013590509250925092565b60008060008060808587031215611bfa578081fd5b611c0385611b42565b9350611c1160208601611b42565b925060408501359150606085013567ffffffffffffffff811115611c33578182fd5b8501601f81018713611c43578182fd5b611c5287823560208401611acc565b91505092959194509250565b60008060408385031215611c70578182fd5b611c7983611b42565b915060208301358015158114611c8d578182fd5b809150509250929050565b60008060408385031215611caa578182fd5b611cb383611b42565b946020939093013593505050565b600060208284031215611cd2578081fd5b8135610a6181612058565b600060208284031215611cee578081fd5b8151610a6181612058565b60008060408385031215611d0b578182fd5b823567ffffffffffffffff811115611d21578283fd5b8301601f81018513611d31578283fd5b611d4085823560208401611acc565b95602094909401359450505050565b600060208284031215611d60578081fd5b5035919050565b60008151808452611d7f816020860160208601611faa565b601f01601f19169290920160200192915050565b805182526020808201516001600160a01b039081169184019190915260408083015190911690830152606080820151908301526080908101511515910152565b60008351611de5818460208801611faa565b835190830190611df9818360208801611faa565b01949350505050565b6001600160a01b0385811682528416602082015260408101839052608060608201819052600090611e3590830184611d67565b9695505050505050565b6020808252825182820181905260009190848201906040850190845b81811015611e8157611e6e838551611d93565b9284019260a09290920191600101611e5b565b50909695505050505050565b602081526000610a616020830184611d67565b6020808252602d908201527f4552433732313a2063616c6c6572206973206e6f7420746f6b656e206f776e6560408201526c1c881bdc88185c1c1c9bdd9959609a1b606082015260800190565b60208082526032908201527f4552433732313a207472616e7366657220746f206e6f6e20455243373231526560408201527131b2b4bb32b91034b6b83632b6b2b73a32b960711b606082015260800190565b60208082526025908201527f4552433732313a207472616e736665722066726f6d20696e636f72726563742060408201526437bbb732b960d91b606082015260800190565b60a081016104348284611d93565b60008219821115611fa557611fa561202c565b500190565b60005b83811015611fc5578181015183820152602001611fad565b83811115610c265750506000910152565b600181811c90821680611fea57607f821691505b6020821081141561200b57634e487b7160e01b600052602260045260246000fd5b50919050565b60006000198214156120255761202561202c565b5060010190565b634e487b7160e01b600052601160045260246000fd5b634e487b7160e01b600052604160045260246000fd5b6001600160e01b03198116811461106657600080fdfea26469706673582212205b71a82b72dfb101a9d6fbbeb5c2a9dee028f6ce0f8c37fbc4abd52c77a666de64736f6c63430008040033",
  "linkReferences": {},
  "deployedLinkReferences": {}
}