{
  "_format": "hh-sol-artifact-1",
  "contractName": "NFTMarketplace",
  "sourceName": "contracts/NFTMarketplace.sol",
  "abi": [
    {
      "inputs": [],
      "stateMutability": "nonpayable",
      "type": "constructor"
    },
    {
      "anonymous": false,
      "inputs": [
        {
          "indexed": true,
          "internalType": "address",
          "name": "owner",
          "type": "address"
        },
        {
          "indexed": true,
          "internalType": "address",
          "name": "approved",
          "type": "address"
        },
        {
          "indexed": true,
          "internalType": "uint256",
          "name": "tokenId",
          "type": "uint256"
        }
      ],
      "name": "Approval",
      "type": "event"
    },
    {
      "anonymous": false,
      "inputs": [
        {
          "indexed": true,
          "internalType": "address",
          "name": "owner",
          "type": "address"
        },
        {
          "indexed": true,
          "internalType": "address",
          "name": "operator",
          "type": "address"
        },
        {
          "indexed": false,
          "internalType": "bool",
          "name": "approved",
          "type": "bool"
        }
      ],
      "name": "ApprovalForAll",
      "type": "event"
    },
    {
      "anonymous": false,
      "inputs": [
        {
          "indexed": false,
          "internalType": "uint256",
          "name": "_fromTokenId",
          "type": "uint256"
        },
        {
          "indexed": false,
          "internalType": "uint256",
          "name": "_toTokenId",
          "type": "uint256"
        }
      ],
      "name": "BatchMetadataUpdate",
      "type": "event"
    },
    {
      "anonymous": false,
      "inputs": [
        {
          "indexed": false,
          "internalType": "uint256",
          "name": "_tokenId",
          "type": "uint256"
        }
      ],
      "name": "MetadataUpdate",
      "type": "event"
    },
    {
      "anonymous": false,
      "inputs": [
        {
          "indexed": true,
          "internalType": "address",
          "name": "from",
          "type": "address"
        },
        {
          "indexed": true,
          "internalType": "address",
          "name": "to",
          "type": "address"
        },
        {
          "indexed": true,
          "internalType": "uint256",
          "name": "tokenId",
          "type": "uint256"
        }
      ],
      "name": "Transfer",
      "type": "event"
    },
    {
      "inputs": [
        {
          "internalType": "address",
          "name": "to",
          "type": "address"
        },
        {
          "internalType": "uint256",
          "name": "tokenId",
          "type": "uint256"
        }
      ],
      "name": "approve",
      "outputs": [],
      "stateMutability": "nonpayable",
      "type": "function"
    },
    {
      "inputs": [
        {
          "internalType": "address",
          "name": "owner",
          "type": "address"
        }
      ],
      "name": "balanceOf",
      "outputs": [
        {
          "internalType": "uint256",
          "name": "",
          "type": "uint256"
        }
      ],
      "stateMutability": "view",
      "type": "function"
    },
    {
      "inputs": [
        {
          "internalType": "string",
          "name": "tokenURI",
          "type": "string"
        },
        {
          "internalType": "uint256",
          "name": "price",
          "type": "uint256"
        }
      ],
      "name": "createToken",
      "outputs": [
        {
          "internalType": "uint256",
          "name": "",
          "type": "uint256"
        }
      ],
      "stateMutability": "payable",
      "type": "function"
    },
    {
      "inputs": [
        {
          "internalType": "uint256",
          "name": "tokenId",
          "type": "uint256"
        }
      ],
      "name": "executeSale",
      "outputs": [],
      "stateMutability": "payable",
      "type": "function"
    },
    {
      "inputs": [],
      "name": "getAllNFTs",
      "outputs": [
        {
          "components": [
            {
              "internalType": "uint256",
              "name": "tokenId",
              "type": "uint256"
            },
            {
              "internalType": "address payable",
              "name": "owner",
              "type": "address"
            },
            {
              "internalType": "address payable",
              "name": "seller",
              "type": "address"
            },
            {
              "internalType": "uint256",
              "name": "price",
              "type": "uint256"
            },
            {
              "internalType": "bool",
              "name": "currentlyListed",
              "type": "bool"
            }
          ],
          "internalType": "struct NFTMarketplace.ListedToken[]",
          "name": "",
          "type": "tuple[]"
        }
      ],
      "stateMutability": "view",
      "type": "function"
    },
    {
      "inputs": [
        {
          "internalType": "uint256",
          "name": "tokenId",
          "type": "uint256"
        }
      ],
      "name": "getApproved",
      "outputs": [
        {
          "internalType": "address",
          "name": "",
          "type": "address"
        }
      ],
      "stateMutability": "view",
      "type": "function"
    },
    {
      "inputs": [],
      "name": "getCurrentToken",
      "outputs": [
        {
          "internalType": "uint256",
          "name": "",
          "type": "uint256"
        }
      ],
      "stateMutability": "view",
      "type": "function"
    },
    {
      "inputs": [],
      "name": "getLastestIdToListedToken",
      "outputs": [
        {
          "components": [
            {
              "internalType": "uint256",
              "name": "tokenId",
              "type": "uint256"
            },
            {
              "internalType": "address payable",
              "name": "owner",
              "type": "address"
            },
            {
              "internalType": "address payable",
              "name": "seller",
              "type": "address"
            },
            {
              "internalType": "uint256",
              "name": "price",
              "type": "uint256"
            },
            {
              "internalType": "bool",
              "name": "currentlyListed",
              "type": "bool"
            }
          ],
          "internalType": "struct NFTMarketplace.ListedToken",
          "name": "",
          "type": "tuple"
        }
      ],
      "stateMutability": "view",
      "type": "function"
    },
    {
      "inputs": [],
      "name": "getListPrice",
      "outputs": [
        {
          "internalType": "uint256",
          "name": "",
          "type": "uint256"
        }
      ],
      "stateMutability": "view",
      "type": "function"
    },
    {
      "inputs": [
        {
          "internalType": "uint256",
          "name": "tokenId",
          "type": "uint256"
        }
      ],
      "name": "getListedForTokenId",
      "outputs": [
        {
          "components": [
            {
              "internalType": "uint256",
              "name": "tokenId",
              "type": "uint256"
            },
            {
              "internalType": "address payable",
              "name": "owner",
              "type": "address"
            },
            {
              "internalType": "address payable",
              "name": "seller",
              "type": "address"
            },
            {
              "internalType": "uint256",
              "name": "price",
              "type": "uint256"
            },
            {
              "internalType": "bool",
              "name": "currentlyListed",
              "type": "bool"
            }
          ],
          "internalType": "struct NFTMarketplace.ListedToken",
          "name": "",
          "type": "tuple"
        }
      ],
      "stateMutability": "view",
      "type": "function"
    },
    {
      "inputs": [],
      "name": "getMyNFTs",
      "outputs": [
        {
          "components": [
            {
              "internalType": "uint256",
              "name": "tokenId",
              "type": "uint256"
            },
            {
              "internalType": "address payable",
              "name": "owner",
              "type": "address"
            },
            {
              "internalType": "address payable",
              "name": "seller",
              "type": "address"
            },
            {
              "internalType": "uint256",
              "name": "price",
              "type": "uint256"
            },
            {
              "internalType": "bool",
              "name": "currentlyListed",
              "type": "bool"
            }
          ],
          "internalType": "struct NFTMarketplace.ListedToken[]",
          "name": "",
          "type": "tuple[]"
        }
      ],
      "stateMutability": "view",
      "type": "function"
    },
    {
      "inputs": [
        {
          "internalType": "address",
          "name": "owner",
          "type": "address"
        },
        {
          "internalType": "address",
          "name": "operator",
          "type": "address"
        }
      ],
      "name": "isApprovedForAll",
      "outputs": [
        {
          "internalType": "bool",
          "name": "",
          "type": "bool"
        }
      ],
      "stateMutability": "view",
      "type": "function"
    },
    {
      "inputs": [],
      "name": "name",
      "outputs": [
        {
          "internalType": "string",
          "name": "",
          "type": "string"
        }
      ],
      "stateMutability": "view",
      "type": "function"
    },
    {
      "inputs": [
        {
          "internalType": "uint256",
          "name": "tokenId",
          "type": "uint256"
        }
      ],
      "name": "ownerOf",
      "outputs": [
        {
          "internalType": "address",
          "name": "",
          "type": "address"
        }
      ],
      "stateMutability": "view",
      "type": "function"
    },
    {
      "inputs": [
        {
          "internalType": "address",
          "name": "from",
          "type": "address"
        },
        {
          "internalType": "address",
          "name": "to",
          "type": "address"
        },
        {
          "internalType": "uint256",
          "name": "tokenId",
          "type": "uint256"
        }
      ],
      "name": "safeTransferFrom",
      "outputs": [],
      "stateMutability": "nonpayable",
      "type": "function"
    },
    {
      "inputs": [
        {
          "internalType": "address",
          "name": "from",
          "type": "address"
        },
        {
          "internalType": "address",
          "name": "to",
          "type": "address"
        },
        {
          "internalType": "uint256",
          "name": "tokenId",
          "type": "uint256"
        },
        {
          "internalType": "bytes",
          "name": "data",
          "type": "bytes"
        }
      ],
      "name": "safeTransferFrom",
      "outputs": [],
      "stateMutability": "nonpayable",
      "type": "function"
    },
    {
      "inputs": [
        {
          "internalType": "address",
          "name": "operator",
          "type": "address"
        },
        {
          "internalType": "bool",
          "name": "approved",
          "type": "bool"
        }
      ],
      "name": "setApprovalForAll",
      "outputs": [],
      "stateMutability": "nonpayable",
      "type": "function"
    },
    {
      "inputs": [
        {
          "internalType": "bytes4",
          "name": "interfaceId",
          "type": "bytes4"
        }
      ],
      "name": "supportsInterface",
      "outputs": [
        {
          "internalType": "bool",
          "name": "",
          "type": "bool"
        }
      ],
      "stateMutability": "view",
      "type": "function"
    },
    {
      "inputs": [],
      "name": "symbol",
      "outputs": [
        {
          "internalType": "string",
          "name": "",
          "type": "string"
        }
      ],
      "stateMutability": "view",
      "type": "function"
    },
    {
      "inputs": [
        {
          "internalType": "uint256",
          "name": "tokenId",
          "type": "uint256"
        }
      ],
      "name": "tokenURI",
      "outputs": [
        {
          "internalType": "string",
          "name": "",
          "type": "string"
        }
      ],
      "stateMutability": "view",
      "type": "function"
    },
    {
      "inputs": [
        {
          "internalType": "address",
          "name": "from",
          "type": "address"
        },
        {
          "internalType": "address",
          "name": "to",
          "type": "address"
        },
        {
          "internalType": "uint256",
          "name": "tokenId",
          "type": "uint256"
        }
      ],
      "name": "transferFrom",
      "outputs": [],
      "stateMutability": "nonpayable",
      "type": "function"
    },
    {
      "inputs": [
        {
          "internalType": "uint256",
          "name": "_listPrice",
          "type": "uint256"
        }
      ],
      "name": "updateListPrice",
      "outputs": [],
      "stateMutability": "payable",
      "type": "function"
    }
  ],
  "bytecode": "0x6080604052655af3107a4000600a553480156200001b57600080fd5b50604080518082018252600e81526d4e46544d61726b6574706c61636560901b6020808301918252835180850190945260048452634e46544d60e01b9084015281519192916200006e916000916200009f565b508051620000849060019060208401906200009f565b5050600780546001600160a01b031916331790555062000182565b828054620000ad9062000145565b90600052602060002090601f016020900481019282620000d157600085556200011c565b82601f10620000ec57805160ff19168380011785556200011c565b828001600101855582156200011c579182015b828111156200011c578251825591602001919060010190620000ff565b506200012a9291506200012e565b5090565b5b808211156200012a57600081556001016200012f565b600181811c908216806200015a57607f821691505b602082108114156200017c57634e487b7160e01b600052602260045260246000fd5b50919050565b6120b280620001926000396000f3fe6080604052600436106101355760003560e01c806395d89b41116100ab578063b88d4fde1161006f578063b88d4fde14610349578063c322579c14610369578063c87b56dd1461037c578063e0391b091461039c578063e985e9c5146103b1578063ef2d1746146103fa57600080fd5b806395d89b41146102bf57806398c3df16146102d45780639b1225c4146103015780639b24684814610314578063a22cb4651461032957600080fd5b806342842e0e116100fd57806342842e0e1461020b578063629cb2e41461022b5780636352211e1461024d57806368f1945f1461026d57806370a082311461028c57806372b3b620146102ac57600080fd5b806301ffc9a71461013a57806306fdde031461016f578063081812fc14610191578063095ea7b3146101c957806323b872dd146101eb575b600080fd5b34801561014657600080fd5b5061015a610155366004611ccf565b61040f565b60405190151581526020015b60405180910390f35b34801561017b57600080fd5b5061018461043a565b6040516101669190611e9b565b34801561019d57600080fd5b506101b16101ac366004611d5d565b6104cc565b6040516001600160a01b039091168152602001610166565b3480156101d557600080fd5b506101e96101e4366004611ca6565b6104f3565b005b3480156101f757600080fd5b506101e9610206366004611bb8565b61060e565b34801561021757600080fd5b506101e9610226366004611bb8565b61063f565b34801561023757600080fd5b5061024061065a565b6040516101669190611e4d565b34801561025957600080fd5b506101b1610268366004611d5d565b61089f565b34801561027957600080fd5b50600a545b604051908152602001610166565b34801561029857600080fd5b5061027e6102a7366004611b6c565b6108ff565b61027e6102ba366004611d07565b610985565b3480156102cb57600080fd5b50610184610a76565b3480156102e057600080fd5b506102f46102ef366004611d5d565b610a85565b6040516101669190611f92565b6101e961030f366004611d5d565b610aef565b34801561032057600080fd5b506102f4610c3a565b34801561033557600080fd5b506101e9610344366004611c6c565b610cb1565b34801561035557600080fd5b506101e9610364366004611bf3565b610cc0565b6101e9610377366004611d5d565b610cf2565b34801561038857600080fd5b50610184610397366004611d5d565b610d5d565b3480156103a857600080fd5b50610240610e6e565b3480156103bd57600080fd5b5061015a6103cc366004611b86565b6001600160a01b03918216600090815260056020908152604080832093909416825291909152205460ff1690565b34801561040657600080fd5b5061027e610fb5565b60006001600160e01b03198216632483248360e11b1480610434575061043482610fc5565b92915050565b60606000805461044990611fe4565b80601f016020809104026020016040519081016040528092919081815260200182805461047590611fe4565b80156104c25780601f10610497576101008083540402835291602001916104c2565b820191906000526020600020905b8154815290600101906020018083116104a557829003601f168201915b5050505050905090565b60006104d782611015565b506000908152600460205260409020546001600160a01b031690565b60006104fe8261089f565b9050806001600160a01b0316836001600160a01b031614156105715760405162461bcd60e51b815260206004820152602160248201527f4552433732313a20617070726f76616c20746f2063757272656e74206f776e656044820152603960f91b60648201526084015b60405180910390fd5b336001600160a01b038216148061058d575061058d81336103cc565b6105ff5760405162461bcd60e51b815260206004820152603d60248201527f4552433732313a20617070726f76652063616c6c6572206973206e6f7420746f60448201527f6b656e206f776e6572206f7220617070726f76656420666f7220616c6c0000006064820152608401610568565b6106098383611077565b505050565b61061833826110e5565b6106345760405162461bcd60e51b815260040161056890611eae565b610609838383611163565b61060983838360405180602001604052806000815250610cc0565b6060600061066760085490565b905060008060005b838110156106ff5733600b6000610687846001611fa0565b81526020810191909152604001600020600101546001600160a01b031614806106da575033600b60006106bb846001611fa0565b81526020810191909152604001600020600201546001600160a01b0316145b156106ed576106ea600184611fa0565b92505b806106f78161201f565b91505061066f565b5060008267ffffffffffffffff81111561072957634e487b7160e01b600052604160045260246000fd5b60405190808252806020026020018201604052801561076257816020015b61074f611a13565b8152602001906001900390816107475790505b50905060005b848110156108965733600b6000610780846001611fa0565b81526020810191909152604001600020600101546001600160a01b031614806107d3575033600b60006107b4846001611fa0565b81526020810191909152604001600020600201546001600160a01b0316145b156108845760006107e5826001611fa0565b6000818152600b6020908152604091829020825160a0810184528154815260018201546001600160a01b039081169382019390935260028201549092169282019290925260038201546060820152600482015460ff16151560808201528551929350909185908790811061086957634e487b7160e01b600052603260045260246000fd5b602090810291909101015261087f600186611fa0565b945050505b8061088e8161201f565b915050610768565b50949350505050565b6000818152600260205260408120546001600160a01b0316806104345760405162461bcd60e51b8152602060048201526018602482015277115490cdcc8c4e881a5b9d985b1a59081d1bdad95b88125160421b6044820152606401610568565b60006001600160a01b0382166109695760405162461bcd60e51b815260206004820152602960248201527f4552433732313a2061646472657373207a65726f206973206e6f7420612076616044820152683634b21037bbb732b960b91b6064820152608401610568565b506001600160a01b031660009081526003602052604090205490565b6000600a5434146109d85760405162461bcd60e51b815260206004820152601960248201527f53656e6420656e6f75676820657468657220746f206c697374000000000000006044820152606401610568565b60008211610a365760405162461bcd60e51b815260206004820152602560248201527f5468652070726963652068617320746f206265206d6f7265207468616e20302060448201526432ba3432b960d91b6064820152608401610568565b610a44600880546001019055565b6000610a4f60085490565b9050610a5b33826112c7565b610a6581856112e1565b610a6f81846113b3565b9392505050565b60606001805461044990611fe4565b610a8d611a13565b506000908152600b6020908152604091829020825160a0810184528154815260018201546001600160a01b03908116938201939093526002820154909216928201929092526003820154606082015260049091015460ff161515608082015290565b6000818152600b6020526040902060030154348114610b635760405162461bcd60e51b815260206004820152602a60248201527f506c65617365207375626d6974207468652061736b696e6720707269636520666044820152691bdc881d1a194813919560b21b6064820152608401610568565b6000828152600b602052604090206002810180546004909201805460ff191660011790556001600160a01b03198216331790556001600160a01b0316610bad600980546001019055565b610bb8303385611163565b610bc230846104f3565b600754600a546040516001600160a01b039092169181156108fc0291906000818181858888f19350505050158015610bfe573d6000803e3d6000fd5b506040516001600160a01b038216903480156108fc02916000818181858888f19350505050158015610c34573d6000803e3d6000fd5b50505050565b610c42611a13565b6000610c4d60085490565b6000908152600b6020908152604091829020825160a0810184528154815260018201546001600160a01b03908116938201939093526002820154909216928201929092526003820154606082015260049091015460ff161515608082015292915050565b610cbc338383611450565b5050565b610cca33836110e5565b610ce65760405162461bcd60e51b815260040161056890611eae565b610c348484848461151f565b6007546001600160a01b03163314610d585760405162461bcd60e51b815260206004820152602360248201527f4f6e6c79206f776e65722063616e20757064617465206c697374696e6720707260448201526269636560e81b6064820152608401610568565b600a55565b6060610d6882611015565b60008281526006602052604081208054610d8190611fe4565b80601f0160208091040260200160405190810160405280929190818152602001828054610dad90611fe4565b8015610dfa5780601f10610dcf57610100808354040283529160200191610dfa565b820191906000526020600020905b815481529060010190602001808311610ddd57829003601f168201915b505050505090506000610e1860408051602081019091526000815290565b9050805160001415610e2b575092915050565b815115610e5d578082604051602001610e45929190611de1565b60405160208183030381529060405292505050919050565b610e6684611552565b949350505050565b60606000610e7b60085490565b905060008167ffffffffffffffff811115610ea657634e487b7160e01b600052604160045260246000fd5b604051908082528060200260200182016040528015610edf57816020015b610ecc611a13565b815260200190600190039081610ec45790505b5090506000805b83811015610fac576000610efb826001611fa0565b6000818152600b6020908152604091829020825160a0810184528154815260018201546001600160a01b039081169382019390935260028201549092169282019290925260038201546060820152600482015460ff161515608082015286519293509091869086908110610f7f57634e487b7160e01b600052603260045260246000fd5b6020908102919091010152610f95600185611fa0565b935050508080610fa49061201f565b915050610ee6565b50909392505050565b6000610fc060085490565b905090565b60006001600160e01b031982166380ac58cd60e01b1480610ff657506001600160e01b03198216635b5e139f60e01b145b8061043457506301ffc9a760e01b6001600160e01b0319831614610434565b6000818152600260205260409020546001600160a01b03166110745760405162461bcd60e51b8152602060048201526018602482015277115490cdcc8c4e881a5b9d985b1a59081d1bdad95b88125160421b6044820152606401610568565b50565b600081815260046020526040902080546001600160a01b0319166001600160a01b03841690811790915581906110ac8261089f565b6001600160a01b03167f8c5be1e5ebec7d5bd14f71427d1e84f3dd0314c0f7b2291e5b200ac8c7c3b92560405160405180910390a45050565b6000806110f18361089f565b9050806001600160a01b0316846001600160a01b0316148061113857506001600160a01b0380821660009081526005602090815260408083209388168352929052205460ff165b80610e665750836001600160a01b0316611151846104cc565b6001600160a01b031614949350505050565b826001600160a01b03166111768261089f565b6001600160a01b03161461119c5760405162461bcd60e51b815260040161056890611f4d565b6001600160a01b0382166111fe5760405162461bcd60e51b8152602060048201526024808201527f4552433732313a207472616e7366657220746f20746865207a65726f206164646044820152637265737360e01b6064820152608401610568565b826001600160a01b03166112118261089f565b6001600160a01b0316146112375760405162461bcd60e51b815260040161056890611f4d565b600081815260046020908152604080832080546001600160a01b03199081169091556001600160a01b0387811680865260038552838620805460001901905590871680865283862080546001019055868652600290945282852080549092168417909155905184937fddf252ad1be2c89b69c2b068fc378daa952ba7f163c4a11628f55a4df523b3ef91a4505050565b610cbc8282604051806020016040528060008152506115c5565b6000828152600260205260409020546001600160a01b031661135c5760405162461bcd60e51b815260206004820152602e60248201527f45524337323155524953746f726167653a2055524920736574206f66206e6f6e60448201526d32bc34b9ba32b73a103a37b5b2b760911b6064820152608401610568565b6000828152600660209081526040909120825161137b92840190611a41565b506040518281527ff8e1a15aba9398e019f0b49df1a4fde98ee17ae345cb5f6b5e2c27f5033e8ce79060200160405180910390a15050565b6040805160a081018252838152306020808301828152338486018181526060860188815260016080880181815260008c8152600b9097529890952096518755925193860180546001600160a01b039586166001600160a01b03199182161790915590516002870180549190951691161790925551600384015592516004909201805492151560ff1990931692909217909155610cbc919084611163565b816001600160a01b0316836001600160a01b031614156114b25760405162461bcd60e51b815260206004820152601960248201527f4552433732313a20617070726f766520746f2063616c6c6572000000000000006044820152606401610568565b6001600160a01b03838116600081815260056020908152604080832094871680845294825291829020805460ff191686151590811790915591519182527f17307eab39ab6107e8899845ad3d59bd9653f200f220920489ca2b5937696c31910160405180910390a3505050565b61152a848484611163565b611536848484846115f8565b610c345760405162461bcd60e51b815260040161056890611efb565b606061155d82611015565b600061157460408051602081019091526000815290565b905060008151116115945760405180602001604052806000815250610a6f565b8061159e84611705565b6040516020016115af929190611de1565b6040516020818303038152906040529392505050565b6115cf83836117b0565b6115dc60008484846115f8565b6106095760405162461bcd60e51b815260040161056890611efb565b60006001600160a01b0384163b156116fa57604051630a85bd0160e11b81526001600160a01b0385169063150b7a029061163c903390899088908890600401611e10565b602060405180830381600087803b15801561165657600080fd5b505af1925050508015611686575060408051601f3d908101601f1916820190925261168391810190611ceb565b60015b6116e0573d8080156116b4576040519150601f19603f3d011682016040523d82523d6000602084013e6116b9565b606091505b5080516116d85760405162461bcd60e51b815260040161056890611efb565b805181602001fd5b6001600160e01b031916630a85bd0160e11b149050610e66565b506001949350505050565b606060006117128361193b565b600101905060008167ffffffffffffffff81111561174057634e487b7160e01b600052604160045260246000fd5b6040519080825280601f01601f19166020018201604052801561176a576020820181803683370190505b5090508181016020015b600019016f181899199a1a9b1b9c1cb0b131b232b360811b600a86061a8153600a85049450846117a3576117a8565b611774565b509392505050565b6001600160a01b0382166118065760405162461bcd60e51b815260206004820181905260248201527f4552433732313a206d696e7420746f20746865207a65726f20616464726573736044820152606401610568565b6000818152600260205260409020546001600160a01b03161561186b5760405162461bcd60e51b815260206004820152601c60248201527f4552433732313a20746f6b656e20616c7265616479206d696e746564000000006044820152606401610568565b6000818152600260205260409020546001600160a01b0316156118d05760405162461bcd60e51b815260206004820152601c60248201527f4552433732313a20746f6b656e20616c7265616479206d696e746564000000006044820152606401610568565b6001600160a01b038216600081815260036020908152604080832080546001019055848352600290915280822080546001600160a01b0319168417905551839291907fddf252ad1be2c89b69c2b068fc378daa952ba7f163c4a11628f55a4df523b3ef908290a45050565b60008072184f03e93ff9f4daa797ed6e38ed64bf6a1f0160401b831061197a5772184f03e93ff9f4daa797ed6e38ed64bf6a1f0160401b830492506040015b6d04ee2d6d415b85acef810000000083106119a6576d04ee2d6d415b85acef8100000000830492506020015b662386f26fc1000083106119c457662386f26fc10000830492506010015b6305f5e10083106119dc576305f5e100830492506008015b61271083106119f057612710830492506004015b60648310611a02576064830492506002015b600a83106104345760010192915050565b6040805160a08101825260008082526020820181905291810182905260608101829052608081019190915290565b828054611a4d90611fe4565b90600052602060002090601f016020900481019282611a6f5760008555611ab5565b82601f10611a8857805160ff1916838001178555611ab5565b82800160010185558215611ab5579182015b82811115611ab5578251825591602001919060010190611a9a565b50611ac1929150611ac5565b5090565b5b80821115611ac15760008155600101611ac6565b600067ffffffffffffffff80841115611af557611af5612050565b604051601f8501601f19908116603f01168101908282118183101715611b1d57611b1d612050565b81604052809350858152868686011115611b3657600080fd5b858560208301376000602087830101525050509392505050565b80356001600160a01b0381168114611b6757600080fd5b919050565b600060208284031215611b7d578081fd5b610a6f82611b50565b60008060408385031215611b98578081fd5b611ba183611b50565b9150611baf60208401611b50565b90509250929050565b600080600060608486031215611bcc578081fd5b611bd584611b50565b9250611be360208501611b50565b9150604084013590509250925092565b60008060008060808587031215611c08578081fd5b611c1185611b50565b9350611c1f60208601611b50565b925060408501359150606085013567ffffffffffffffff811115611c41578182fd5b8501601f81018713611c51578182fd5b611c6087823560208401611ada565b91505092959194509250565b60008060408385031215611c7e578182fd5b611c8783611b50565b915060208301358015158114611c9b578182fd5b809150509250929050565b60008060408385031215611cb8578182fd5b611cc183611b50565b946020939093013593505050565b600060208284031215611ce0578081fd5b8135610a6f81612066565b600060208284031215611cfc578081fd5b8151610a6f81612066565b60008060408385031215611d19578182fd5b823567ffffffffffffffff811115611d2f578283fd5b8301601f81018513611d3f578283fd5b611d4e85823560208401611ada565b95602094909401359450505050565b600060208284031215611d6e578081fd5b5035919050565b60008151808452611d8d816020860160208601611fb8565b601f01601f19169290920160200192915050565b805182526020808201516001600160a01b039081169184019190915260408083015190911690830152606080820151908301526080908101511515910152565b60008351611df3818460208801611fb8565b835190830190611e07818360208801611fb8565b01949350505050565b6001600160a01b0385811682528416602082015260408101839052608060608201819052600090611e4390830184611d75565b9695505050505050565b6020808252825182820181905260009190848201906040850190845b81811015611e8f57611e7c838551611da1565b9284019260a09290920191600101611e69565b50909695505050505050565b602081526000610a6f6020830184611d75565b6020808252602d908201527f4552433732313a2063616c6c6572206973206e6f7420746f6b656e206f776e6560408201526c1c881bdc88185c1c1c9bdd9959609a1b606082015260800190565b60208082526032908201527f4552433732313a207472616e7366657220746f206e6f6e20455243373231526560408201527131b2b4bb32b91034b6b83632b6b2b73a32b960711b606082015260800190565b60208082526025908201527f4552433732313a207472616e736665722066726f6d20696e636f72726563742060408201526437bbb732b960d91b606082015260800190565b60a081016104348284611da1565b60008219821115611fb357611fb361203a565b500190565b60005b83811015611fd3578181015183820152602001611fbb565b83811115610c345750506000910152565b600181811c90821680611ff857607f821691505b6020821081141561201957634e487b7160e01b600052602260045260246000fd5b50919050565b60006000198214156120335761203361203a565b5060010190565b634e487b7160e01b600052601160045260246000fd5b634e487b7160e01b600052604160045260246000fd5b6001600160e01b03198116811461107457600080fdfea2646970667358221220749fc478d36d0bf83f34ba3614c4acfc70ce76d8d971d35cf2b38ab9aa8ff8a064736f6c63430008040033",
  "linkReferences": {},
  "deployedLinkReferences": {}
}